{
  "contractName": "RewardToken",
  "abi": [
    {
      "inputs": [
        {
          "internalType": "string",
          "name": "name_",
          "type": "string"
        },
        {
          "internalType": "string",
          "name": "symbol_",
          "type": "string"
        },
        {
          "internalType": "uint256",
          "name": "cap_",
          "type": "uint256"
        },
        {
          "internalType": "uint256",
          "name": "initialSupply_",
          "type": "uint256"
        },
        {
          "internalType": "uint256",
          "name": "mintingAllowedAfter_",
          "type": "uint256"
        }
      ],
      "stateMutability": "nonpayable",
      "type": "constructor"
    },
    {
      "anonymous": false,
      "inputs": [
        {
          "indexed": true,
          "internalType": "address",
          "name": "owner",
          "type": "address"
        },
        {
          "indexed": true,
          "internalType": "address",
          "name": "spender",
          "type": "address"
        },
        {
          "indexed": false,
          "internalType": "uint256",
          "name": "value",
          "type": "uint256"
        }
      ],
      "name": "Approval",
      "type": "event"
    },
    {
      "anonymous": false,
      "inputs": [
        {
          "indexed": true,
          "internalType": "address",
          "name": "delegator",
          "type": "address"
        },
        {
          "indexed": true,
          "internalType": "address",
          "name": "fromDelegate",
          "type": "address"
        },
        {
          "indexed": true,
          "internalType": "address",
          "name": "toDelegate",
          "type": "address"
        }
      ],
      "name": "DelegateChanged",
      "type": "event"
    },
    {
      "anonymous": false,
      "inputs": [
        {
          "indexed": true,
          "internalType": "address",
          "name": "delegate",
          "type": "address"
        },
        {
          "indexed": false,
          "internalType": "uint256",
          "name": "previousBalance",
          "type": "uint256"
        },
        {
          "indexed": false,
          "internalType": "uint256",
          "name": "newBalance",
          "type": "uint256"
        }
      ],
      "name": "DelegateVotesChanged",
      "type": "event"
    },
    {
      "anonymous": false,
      "inputs": [
        {
          "indexed": true,
          "internalType": "bytes32",
          "name": "role",
          "type": "bytes32"
        },
        {
          "indexed": true,
          "internalType": "bytes32",
          "name": "previousAdminRole",
          "type": "bytes32"
        },
        {
          "indexed": true,
          "internalType": "bytes32",
          "name": "newAdminRole",
          "type": "bytes32"
        }
      ],
      "name": "RoleAdminChanged",
      "type": "event"
    },
    {
      "anonymous": false,
      "inputs": [
        {
          "indexed": true,
          "internalType": "bytes32",
          "name": "role",
          "type": "bytes32"
        },
        {
          "indexed": true,
          "internalType": "address",
          "name": "account",
          "type": "address"
        },
        {
          "indexed": true,
          "internalType": "address",
          "name": "sender",
          "type": "address"
        }
      ],
      "name": "RoleGranted",
      "type": "event"
    },
    {
      "anonymous": false,
      "inputs": [
        {
          "indexed": true,
          "internalType": "bytes32",
          "name": "role",
          "type": "bytes32"
        },
        {
          "indexed": true,
          "internalType": "address",
          "name": "account",
          "type": "address"
        },
        {
          "indexed": true,
          "internalType": "address",
          "name": "sender",
          "type": "address"
        }
      ],
      "name": "RoleRevoked",
      "type": "event"
    },
    {
      "anonymous": false,
      "inputs": [
        {
          "indexed": true,
          "internalType": "address",
          "name": "from",
          "type": "address"
        },
        {
          "indexed": true,
          "internalType": "address",
          "name": "to",
          "type": "address"
        },
        {
          "indexed": false,
          "internalType": "uint256",
          "name": "value",
          "type": "uint256"
        }
      ],
      "name": "Transfer",
      "type": "event"
    },
    {
      "inputs": [],
      "name": "BURNER_ROLE",
      "outputs": [
        {
          "internalType": "bytes32",
          "name": "",
          "type": "bytes32"
        }
      ],
      "stateMutability": "view",
      "type": "function",
      "constant": true
    },
    {
      "inputs": [],
      "name": "DEFAULT_ADMIN_ROLE",
      "outputs": [
        {
          "internalType": "bytes32",
          "name": "",
          "type": "bytes32"
        }
      ],
      "stateMutability": "view",
      "type": "function",
      "constant": true
    },
    {
      "inputs": [],
      "name": "DOMAIN_SEPARATOR",
      "outputs": [
        {
          "internalType": "bytes32",
          "name": "",
          "type": "bytes32"
        }
      ],
      "stateMutability": "view",
      "type": "function",
      "constant": true
    },
    {
      "inputs": [],
      "name": "MINTER_ROLE",
      "outputs": [
        {
          "internalType": "bytes32",
          "name": "",
          "type": "bytes32"
        }
      ],
      "stateMutability": "view",
      "type": "function",
      "constant": true
    },
    {
      "inputs": [
        {
          "internalType": "address",
          "name": "owner",
          "type": "address"
        },
        {
          "internalType": "address",
          "name": "spender",
          "type": "address"
        }
      ],
      "name": "allowance",
      "outputs": [
        {
          "internalType": "uint256",
          "name": "",
          "type": "uint256"
        }
      ],
      "stateMutability": "view",
      "type": "function",
      "constant": true
    },
    {
      "inputs": [
        {
          "internalType": "address",
          "name": "spender",
          "type": "address"
        },
        {
          "internalType": "uint256",
          "name": "amount",
          "type": "uint256"
        }
      ],
      "name": "approve",
      "outputs": [
        {
          "internalType": "bool",
          "name": "",
          "type": "bool"
        }
      ],
      "stateMutability": "nonpayable",
      "type": "function"
    },
    {
      "inputs": [
        {
          "internalType": "address",
          "name": "account",
          "type": "address"
        }
      ],
      "name": "balanceOf",
      "outputs": [
        {
          "internalType": "uint256",
          "name": "",
          "type": "uint256"
        }
      ],
      "stateMutability": "view",
      "type": "function",
      "constant": true
    },
    {
      "inputs": [],
      "name": "cap",
      "outputs": [
        {
          "internalType": "uint256",
          "name": "",
          "type": "uint256"
        }
      ],
      "stateMutability": "view",
      "type": "function",
      "constant": true
    },
    {
      "inputs": [
        {
          "internalType": "address",
          "name": "account",
          "type": "address"
        },
        {
          "internalType": "uint32",
          "name": "pos",
          "type": "uint32"
        }
      ],
      "name": "checkpoints",
      "outputs": [
        {
          "components": [
            {
              "internalType": "uint32",
              "name": "fromBlock",
              "type": "uint32"
            },
            {
              "internalType": "uint224",
              "name": "votes",
              "type": "uint224"
            }
          ],
          "internalType": "struct ERC20Votes.Checkpoint",
          "name": "",
          "type": "tuple"
        }
      ],
      "stateMutability": "view",
      "type": "function",
      "constant": true
    },
    {
      "inputs": [],
      "name": "decimals",
      "outputs": [
        {
          "internalType": "uint8",
          "name": "",
          "type": "uint8"
        }
      ],
      "stateMutability": "view",
      "type": "function",
      "constant": true
    },
    {
      "inputs": [
        {
          "internalType": "address",
          "name": "spender",
          "type": "address"
        },
        {
          "internalType": "uint256",
          "name": "subtractedValue",
          "type": "uint256"
        }
      ],
      "name": "decreaseAllowance",
      "outputs": [
        {
          "internalType": "bool",
          "name": "",
          "type": "bool"
        }
      ],
      "stateMutability": "nonpayable",
      "type": "function"
    },
    {
      "inputs": [
        {
          "internalType": "address",
          "name": "delegatee",
          "type": "address"
        }
      ],
      "name": "delegate",
      "outputs": [],
      "stateMutability": "nonpayable",
      "type": "function"
    },
    {
      "inputs": [
        {
          "internalType": "address",
          "name": "delegatee",
          "type": "address"
        },
        {
          "internalType": "uint256",
          "name": "nonce",
          "type": "uint256"
        },
        {
          "internalType": "uint256",
          "name": "expiry",
          "type": "uint256"
        },
        {
          "internalType": "uint8",
          "name": "v",
          "type": "uint8"
        },
        {
          "internalType": "bytes32",
          "name": "r",
          "type": "bytes32"
        },
        {
          "internalType": "bytes32",
          "name": "s",
          "type": "bytes32"
        }
      ],
      "name": "delegateBySig",
      "outputs": [],
      "stateMutability": "nonpayable",
      "type": "function"
    },
    {
      "inputs": [
        {
          "internalType": "address",
          "name": "account",
          "type": "address"
        }
      ],
      "name": "delegates",
      "outputs": [
        {
          "internalType": "address",
          "name": "",
          "type": "address"
        }
      ],
      "stateMutability": "view",
      "type": "function",
      "constant": true
    },
    {
      "inputs": [
        {
          "internalType": "uint256",
          "name": "blockNumber",
          "type": "uint256"
        }
      ],
      "name": "getPastTotalSupply",
      "outputs": [
        {
          "internalType": "uint256",
          "name": "",
          "type": "uint256"
        }
      ],
      "stateMutability": "view",
      "type": "function",
      "constant": true
    },
    {
      "inputs": [
        {
          "internalType": "address",
          "name": "account",
          "type": "address"
        },
        {
          "internalType": "uint256",
          "name": "blockNumber",
          "type": "uint256"
        }
      ],
      "name": "getPastVotes",
      "outputs": [
        {
          "internalType": "uint256",
          "name": "",
          "type": "uint256"
        }
      ],
      "stateMutability": "view",
      "type": "function",
      "constant": true
    },
    {
      "inputs": [
        {
          "internalType": "bytes32",
          "name": "role",
          "type": "bytes32"
        }
      ],
      "name": "getRoleAdmin",
      "outputs": [
        {
          "internalType": "bytes32",
          "name": "",
          "type": "bytes32"
        }
      ],
      "stateMutability": "view",
      "type": "function",
      "constant": true
    },
    {
      "inputs": [
        {
          "internalType": "address",
          "name": "account",
          "type": "address"
        }
      ],
      "name": "getVotes",
      "outputs": [
        {
          "internalType": "uint256",
          "name": "",
          "type": "uint256"
        }
      ],
      "stateMutability": "view",
      "type": "function",
      "constant": true
    },
    {
      "inputs": [
        {
          "internalType": "bytes32",
          "name": "role",
          "type": "bytes32"
        },
        {
          "internalType": "address",
          "name": "account",
          "type": "address"
        }
      ],
      "name": "grantRole",
      "outputs": [],
      "stateMutability": "nonpayable",
      "type": "function"
    },
    {
      "inputs": [
        {
          "internalType": "bytes32",
          "name": "role",
          "type": "bytes32"
        },
        {
          "internalType": "address",
          "name": "account",
          "type": "address"
        }
      ],
      "name": "hasRole",
      "outputs": [
        {
          "internalType": "bool",
          "name": "",
          "type": "bool"
        }
      ],
      "stateMutability": "view",
      "type": "function",
      "constant": true
    },
    {
      "inputs": [
        {
          "internalType": "address",
          "name": "spender",
          "type": "address"
        },
        {
          "internalType": "uint256",
          "name": "addedValue",
          "type": "uint256"
        }
      ],
      "name": "increaseAllowance",
      "outputs": [
        {
          "internalType": "bool",
          "name": "",
          "type": "bool"
        }
      ],
      "stateMutability": "nonpayable",
      "type": "function"
    },
    {
      "inputs": [],
      "name": "name",
      "outputs": [
        {
          "internalType": "string",
          "name": "",
          "type": "string"
        }
      ],
      "stateMutability": "view",
      "type": "function",
      "constant": true
    },
    {
      "inputs": [
        {
          "internalType": "address",
          "name": "owner",
          "type": "address"
        }
      ],
      "name": "nonces",
      "outputs": [
        {
          "internalType": "uint256",
          "name": "",
          "type": "uint256"
        }
      ],
      "stateMutability": "view",
      "type": "function",
      "constant": true
    },
    {
      "inputs": [
        {
          "internalType": "address",
          "name": "account",
          "type": "address"
        }
      ],
      "name": "numCheckpoints",
      "outputs": [
        {
          "internalType": "uint32",
          "name": "",
          "type": "uint32"
        }
      ],
      "stateMutability": "view",
      "type": "function",
      "constant": true
    },
    {
      "inputs": [
        {
          "internalType": "address",
          "name": "owner",
          "type": "address"
        },
        {
          "internalType": "address",
          "name": "spender",
          "type": "address"
        },
        {
          "internalType": "uint256",
          "name": "value",
          "type": "uint256"
        },
        {
          "internalType": "uint256",
          "name": "deadline",
          "type": "uint256"
        },
        {
          "internalType": "uint8",
          "name": "v",
          "type": "uint8"
        },
        {
          "internalType": "bytes32",
          "name": "r",
          "type": "bytes32"
        },
        {
          "internalType": "bytes32",
          "name": "s",
          "type": "bytes32"
        }
      ],
      "name": "permit",
      "outputs": [],
      "stateMutability": "nonpayable",
      "type": "function"
    },
    {
      "inputs": [
        {
          "internalType": "bytes32",
          "name": "role",
          "type": "bytes32"
        },
        {
          "internalType": "address",
          "name": "account",
          "type": "address"
        }
      ],
      "name": "renounceRole",
      "outputs": [],
      "stateMutability": "nonpayable",
      "type": "function"
    },
    {
      "inputs": [
        {
          "internalType": "bytes32",
          "name": "role",
          "type": "bytes32"
        },
        {
          "internalType": "address",
          "name": "account",
          "type": "address"
        }
      ],
      "name": "revokeRole",
      "outputs": [],
      "stateMutability": "nonpayable",
      "type": "function"
    },
    {
      "inputs": [
        {
          "internalType": "bytes4",
          "name": "interfaceId",
          "type": "bytes4"
        }
      ],
      "name": "supportsInterface",
      "outputs": [
        {
          "internalType": "bool",
          "name": "",
          "type": "bool"
        }
      ],
      "stateMutability": "view",
      "type": "function",
      "constant": true
    },
    {
      "inputs": [],
      "name": "symbol",
      "outputs": [
        {
          "internalType": "string",
          "name": "",
          "type": "string"
        }
      ],
      "stateMutability": "view",
      "type": "function",
      "constant": true
    },
    {
      "inputs": [],
      "name": "totalSupply",
      "outputs": [
        {
          "internalType": "uint256",
          "name": "",
          "type": "uint256"
        }
      ],
      "stateMutability": "view",
      "type": "function",
      "constant": true
    },
    {
      "inputs": [
        {
          "internalType": "address",
          "name": "recipient",
          "type": "address"
        },
        {
          "internalType": "uint256",
          "name": "amount",
          "type": "uint256"
        }
      ],
      "name": "transfer",
      "outputs": [
        {
          "internalType": "bool",
          "name": "",
          "type": "bool"
        }
      ],
      "stateMutability": "nonpayable",
      "type": "function"
    },
    {
      "inputs": [
        {
          "internalType": "address",
          "name": "sender",
          "type": "address"
        },
        {
          "internalType": "address",
          "name": "recipient",
          "type": "address"
        },
        {
          "internalType": "uint256",
          "name": "amount",
          "type": "uint256"
        }
      ],
      "name": "transferFrom",
      "outputs": [
        {
          "internalType": "bool",
          "name": "",
          "type": "bool"
        }
      ],
      "stateMutability": "nonpayable",
      "type": "function"
    },
    {
      "inputs": [],
      "name": "remainingMints",
      "outputs": [
        {
          "internalType": "uint256",
          "name": "",
          "type": "uint256"
        }
      ],
      "stateMutability": "view",
      "type": "function",
      "constant": true
    },
    {
      "inputs": [],
      "name": "mintAmountleft",
      "outputs": [
        {
          "internalType": "uint256",
          "name": "",
          "type": "uint256"
        }
      ],
      "stateMutability": "view",
      "type": "function",
      "constant": true
    },
    {
      "inputs": [],
      "name": "nextAllowedMint",
      "outputs": [
        {
          "internalType": "uint256",
          "name": "",
          "type": "uint256"
        }
      ],
      "stateMutability": "view",
      "type": "function",
      "constant": true
    },
    {
      "inputs": [],
      "name": "mintingAllowedAfter",
      "outputs": [
        {
          "internalType": "uint256",
          "name": "",
          "type": "uint256"
        }
      ],
      "stateMutability": "view",
      "type": "function",
      "constant": true
    },
    {
      "inputs": [],
      "name": "minimumTimeBetweenMints",
      "outputs": [
        {
          "internalType": "uint256",
          "name": "",
          "type": "uint256"
        }
      ],
      "stateMutability": "view",
      "type": "function",
      "constant": true
    },
    {
      "inputs": [
        {
          "internalType": "address",
          "name": "account",
          "type": "address"
        }
      ],
      "name": "mint",
      "outputs": [],
      "stateMutability": "nonpayable",
      "type": "function"
    },
    {
      "inputs": [
        {
          "internalType": "uint256",
          "name": "amount",
          "type": "uint256"
        }
      ],
      "name": "burn",
      "outputs": [],
      "stateMutability": "nonpayable",
      "type": "function"
    },
    {
      "inputs": [
        {
          "internalType": "address",
          "name": "account",
          "type": "address"
        },
        {
          "internalType": "uint256",
          "name": "amount",
          "type": "uint256"
        }
      ],
      "name": "burnFrom",
      "outputs": [],
      "stateMutability": "nonpayable",
      "type": "function"
    }
  ],
  "bytecode": "0x6101606040527f6e71edae12b1b97f4d1f60370fef10105fa2faae0126114a169c64845d6126c9610140523480156200003757600080fd5b5060405162003847380380620038478339810160408190526200005a9162000962565b8480604051806040016040528060018152602001603160f81b8152508588888160049080519060200190620000919291906200081b565b508051620000a79060059060208401906200081b565b50505060008111620000d65760405162461bcd60e51b8152600401620000cd9062000a10565b60405180910390fd5b608052815160208084019190912082519183019190912060e08290526101008190524660c0527f8b73c3c69bb8fe3d512ecc4cf759cc79239f7b179b0ffacaa9a75d522b39400f6200012a8184846200024a565b60a052610120525050504283101591506200015b90505760405162461bcd60e51b8152600401620000cd9062000a47565b6200017160006200016b62000287565b6200028b565b620001a07f9f2df0fed2c77648de5860a4cc508cd0818c85b8b8a1ab4ceeef8d981c8956a66200016b62000287565b620001cf7f3c11d16cbaffd01df69ce1c404f6340ee057498f5f00246190ea54220576a8486200016b62000287565b620001ef620001dd62000287565b836200029b60201b62000e6c1760201c565b600b81905561012c600c55620002086012600a62000bf2565b620002159060c862000cda565b600a9081556003600d556200022d9060129062000bf2565b6200023b9061025862000cda565b600e555062000d7f9350505050565b6000838383463060405160200162000267959493929190620009e4565b6040516020818303038152906040528051906020012090505b9392505050565b3390565b62000297828262000370565b5050565b6001600160a01b038216620002c45760405162461bcd60e51b8152600401620000cd9062000b3c565b620002d260008383620003fa565b8060036000828254620002e6919062000b8a565b90915550506001600160a01b038216600090815260016020526040812080548392906200031590849062000b8a565b90915550506040516001600160a01b038316906000907fddf252ad1be2c89b69c2b068fc378daa952ba7f163c4a11628f55a4df523b3ef906200035a90859062000b73565b60405180910390a36200029760008383620003ff565b6200037c828262000417565b62000297576000828152602081815260408083206001600160a01b03851684529091529020805460ff19166001179055620003b662000287565b6001600160a01b0316816001600160a01b0316837f2f8788117e7eff1d82e926ec794901d17c78024a50270940304540a733656f0d60405160405180910390a45050565b505050565b620003fa8383836200044060201b62000f341760201c565b6000918252602082815260408084206001600160a01b0393909316845291905290205460ff1690565b62000458838383620003fa60201b620006ea1760201c565b620003fa620004678462000479565b620004728462000479565b8362000497565b6001600160a01b039081166000908152600760205260409020541690565b816001600160a01b0316836001600160a01b031614158015620004ba5750600081115b15620003fa576001600160a01b038316156200053f576001600160a01b038316600090815260086020908152604082208291620005049190620005c2901b62000f5a1785620005d0565b91509150846001600160a01b03166000805160206200382783398151915283836040516200053492919062000b7c565b60405180910390a250505b6001600160a01b03821615620003fa576001600160a01b038216600090815260086020908152604082208291620005839190620007b4901b62000f661785620005d0565b91509150836001600160a01b0316600080516020620038278339815191528383604051620005b392919062000b7c565b60405180910390a25050505050565b600062000280828462000cfc565b8254600090819080156200062e5785620005ec60018362000cfc565b815481106200060b57634e487b7160e01b600052603260045260246000fd5b60009182526020909120015464010000000090046001600160e01b031662000631565b60005b6001600160e01b031692506200064883858760201c565b915060008111801562000698575043866200066560018462000cfc565b815481106200068457634e487b7160e01b600052603260045260246000fd5b60009182526020909120015463ffffffff16145b156200071857620006b482620007c260201b62000f721760201c565b86620006c260018462000cfc565b81548110620006e157634e487b7160e01b600052603260045260246000fd5b9060005260206000200160000160046101000a8154816001600160e01b0302191690836001600160e01b03160217905550620007ab565b8560405180604001604052806200073a43620007f260201b62000f9f1760201c565b63ffffffff1681526020016200075b85620007c260201b62000f721760201c565b6001600160e01b039081169091528254600181018455600093845260209384902083519101805493909401519091166401000000000263ffffffff91821663ffffffff1990931692909217161790555b50935093915050565b600062000280828462000b8a565b60006001600160e01b03821115620007ee5760405162461bcd60e51b8152600401620000cd9062000aaf565b5090565b600063ffffffff821115620007ee5760405162461bcd60e51b8152600401620000cd9062000af6565b828054620008299062000d16565b90600052602060002090601f0160209004810192826200084d576000855562000898565b82601f106200086857805160ff191683800117855562000898565b8280016001018555821562000898579182015b82811115620008985782518255916020019190600101906200087b565b50620007ee9291505b80821115620007ee5760008155600101620008a1565b600082601f830112620008c8578081fd5b81516001600160401b0380821115620008e557620008e562000d69565b6040516020601f8401601f19168201810183811183821017156200090d576200090d62000d69565b604052838252858401810187101562000924578485fd5b8492505b8383101562000947578583018101518284018201529182019162000928565b838311156200095857848185840101525b5095945050505050565b600080600080600060a086880312156200097a578081fd5b85516001600160401b038082111562000991578283fd5b6200099f89838a01620008b7565b96506020880151915080821115620009b5578283fd5b50620009c488828901620008b7565b60408801516060890151608090990151979a919950979695509350505050565b9485526020850193909352604084019190915260608301526001600160a01b0316608082015260a00190565b60208082526015908201527f45524332304361707065643a2063617020697320300000000000000000000000604082015260600190565b60208082526042908201527f546f6b656e3a3a636f6e7374727563746f723a206d696e74696e672063616e2060408201527f6f6e6c7920737461727420616674657220746f6b656e206973206465706c6f79606082015261195960f21b608082015260a00190565b60208082526027908201527f53616665436173743a2076616c756520646f65736e27742066697420696e20326040820152663234206269747360c81b606082015260800190565b60208082526026908201527f53616665436173743a2076616c756520646f65736e27742066697420696e203360408201526532206269747360d01b606082015260800190565b6020808252601f908201527f45524332303a206d696e7420746f20746865207a65726f206164647265737300604082015260600190565b90815260200190565b918252602082015260400190565b6000821982111562000ba05762000ba062000d53565b500190565b80825b600180861162000bb9575062000be9565b81870482111562000bce5762000bce62000d53565b8086161562000bdc57918102915b9490941c93800262000ba8565b94509492505050565b600062000280600019848460008262000c0e5750600162000280565b8162000c1d5750600062000280565b816001811462000c36576002811462000c415762000c75565b600191505062000280565b60ff84111562000c555762000c5562000d53565b6001841b91508482111562000c6e5762000c6e62000d53565b5062000280565b5060208310610133831016604e8410600b841016171562000cad575081810a8381111562000ca75762000ca762000d53565b62000280565b62000cbc848484600162000ba5565b80860482111562000cd15762000cd162000d53565b02949350505050565b600081600019048311821515161562000cf75762000cf762000d53565b500290565b60008282101562000d115762000d1162000d53565b500390565b60028104600182168062000d2b57607f821691505b6020821081141562000d4d57634e487b7160e01b600052602260045260246000fd5b50919050565b634e487b7160e01b600052601160045260246000fd5b634e487b7160e01b600052604160045260246000fd5b60805160a05160c05160e051610100516101205161014051612a4d62000dda6000396000610cb4015260006112f90152600061133b0152600061131a015260006112a7015260006112d0015260006106fc0152612a4d6000f3fe608060405234801561001057600080fd5b50600436106102485760003560e01c80636a6278421161013b578063a217fddf116100b8578063d53913931161007c578063d5391393146104bb578063d547741f146104c3578063d87854cb146104d6578063dd62ed3e146104de578063f1127ed8146104f157610248565b8063a217fddf14610467578063a457c2d71461046f578063a9059cbb14610482578063c3cda52014610495578063d505accf146104a857610248565b80637ecebe00116100ff5780637ecebe00146104135780638e539e8c1461042657806391d148541461043957806395d89b411461044c5780639ab24eb01461045457610248565b80636a627842146103b25780636fcfff45146103c557806370a08231146103e557806375017f55146103f857806379cc67901461040057610248565b8063355274ea116101c95780633f2104be1161018d5780633f2104be1461035c57806342966c6814610364578063587cde1e146103775780635c11d62f146103975780635c19a95c1461039f57610248565b8063355274ea146103135780633644e5151461031b57806336568abe1461032357806339509351146103365780633a46b1a81461034957610248565b8063248a9ca311610210578063248a9ca3146102c6578063282c51f3146102d95780632f2ff15d146102e157806330b36cef146102f6578063313ce567146102fe57610248565b806301ffc9a71461024d57806306fdde0314610276578063095ea7b31461028b57806318160ddd1461029e57806323b872dd146102b3575b600080fd5b61026061025b366004612071565b610511565b60405161026d919061213d565b60405180910390f35b61027e61053e565b60405161026d91906121f3565b610260610299366004611f79565b6105d1565b6102a66105ee565b60405161026d9190612148565b6102606102c1366004611ed5565b6105f4565b6102a66102d4366004612037565b61068d565b6102a66106a2565b6102f46102ef36600461204f565b6106c6565b005b6102a66106ef565b6103066106f5565b60405161026d919061290d565b6102a66106fa565b6102a661071e565b6102f461033136600461204f565b61072d565b610260610344366004611f79565b610773565b6102a6610357366004611f79565b6107c7565b6102a6610811565b6102f4610372366004612037565b610817565b61038a610385366004611e89565b610855565b60405161026d9190612129565b6102a6610873565b6102f46103ad366004611e89565b610879565b6102f46103c0366004611e89565b61088d565b6103d86103d3366004611e89565b61096a565b60405161026d91906128fc565b6102a66103f3366004611e89565b61098c565b6102a66109a7565b6102f461040e366004611f79565b6109ad565b6102a6610421366004611e89565b610a26565b6102a6610434366004612037565b610a47565b61026061044736600461204f565b610a73565b61027e610a9c565b6102a6610462366004611e89565b610aab565b6102a6610b40565b61026061047d366004611f79565b610b45565b610260610490366004611f79565b610bbe565b6102f46104a3366004611fa2565b610bd2565b6102f46104b6366004611f10565b610c90565b6102a6610d72565b6102f46104d136600461204f565b610d96565b6102a6610db5565b6102a66104ec366004611ea3565b610dbb565b6105046104ff366004611ff9565b610de6565b60405161026d91906128c8565b60006001600160e01b03198216637965db0b60e01b1480610536575061053682610fc5565b90505b919050565b60606004805461054d906129cc565b80601f0160208091040260200160405190810160405280929190818152602001828054610579906129cc565b80156105c65780601f1061059b576101008083540402835291602001916105c6565b820191906000526020600020905b8154815290600101906020018083116105a957829003601f168201915b505050505090505b90565b60006105e56105de610fde565b8484610fe2565b50600192915050565b60035490565b6000610601848484611096565b6001600160a01b038416600090815260026020526040812081610622610fde565b6001600160a01b03166001600160a01b031681526020019081526020016000205490508281101561066e5760405162461bcd60e51b8152600401610665906125ae565b60405180910390fd5b6106828561067a610fde565b858403610fe2565b506001949350505050565b60009081526020819052604090206001015490565b7f3c11d16cbaffd01df69ce1c404f6340ee057498f5f00246190ea54220576a84881565b6106cf8261068d565b6106e0816106db610fde565b6111ba565b6106ea838361121e565b505050565b600b5490565b601290565b7f000000000000000000000000000000000000000000000000000000000000000090565b60006107286112a3565b905090565b610735610fde565b6001600160a01b0316816001600160a01b0316146107655760405162461bcd60e51b815260040161066590612842565b61076f8282611366565b5050565b60006105e5610780610fde565b84846002600061078e610fde565b6001600160a01b03908116825260208083019390935260409182016000908120918b16815292529020546107c2919061291b565b610fe2565b60004382106107e85760405162461bcd60e51b8152600401610665906122d5565b6001600160a01b038316600090815260086020526040902061080a90836113e9565b9392505050565b600a5490565b7f3c11d16cbaffd01df69ce1c404f6340ee057498f5f00246190ea54220576a848610844816106db610fde565b61076f61084f610fde565b836114c2565b6001600160a01b039081166000908152600760205260409020541690565b600c5490565b61088a610884610fde565b826114cc565b50565b7f9f2df0fed2c77648de5860a4cc508cd0818c85b8b8a1ab4ceeef8d981c8956a66108ba816106db610fde565b6000600d54116108dc5760405162461bcd60e51b815260040161066590612536565b600b5442116108fd5760405162461bcd60e51b8152600401610665906127c8565b600a5461090a838261154c565b600c54610917904261291b565b600b819055506001600d60008282546109309190612972565b9250508190555080600e60008282546109499190612972565b9091555061095790506109a7565b6106ea576000600a819055600b55505050565b6001600160a01b03811660009081526008602052604081205461053690610f9f565b6001600160a01b031660009081526001602052604090205490565b600e5490565b7f3c11d16cbaffd01df69ce1c404f6340ee057498f5f00246190ea54220576a8486109da816106db610fde565b60006109e8846104ec610fde565b905082811015610a0a5760405162461bcd60e51b81526004016106659061263d565b610a168461067a610fde565b610a2084846114c2565b50505050565b6001600160a01b038116600090815260066020526040812061053690611556565b6000438210610a685760405162461bcd60e51b8152600401610665906122d5565b6105366009836113e9565b6000918252602082815260408084206001600160a01b0393909316845291905290205460ff1690565b60606005805461054d906129cc565b6001600160a01b0381166000908152600860205260408120548015610b2d576001600160a01b0383166000908152600860205260409020610aed600183612972565b81548110610b0b57634e487b7160e01b600052603260045260246000fd5b60009182526020909120015464010000000090046001600160e01b0316610b30565b60005b6001600160e01b03169392505050565b600081565b60008060026000610b54610fde565b6001600160a01b0390811682526020808301939093526040918201600090812091881681529252902054905082811015610ba05760405162461bcd60e51b8152600401610665906127fd565b610bb4610bab610fde565b85858403610fe2565b5060019392505050565b60006105e5610bcb610fde565b8484611096565b83421115610bf25760405162461bcd60e51b81526004016106659061230c565b6000610c54610c4c7fe48329057bfd03d55e49b547132e39cffd9c1820ad7b9d4c5307691425d15adf898989604051602001610c319493929190612185565b6040516020818303038152906040528051906020012061155a565b85858561156d565b9050610c5f81611595565b8614610c7d5760405162461bcd60e51b8152600401610665906123bc565b610c8781886114cc565b50505050505050565b83421115610cb05760405162461bcd60e51b815260040161066590612435565b60007f0000000000000000000000000000000000000000000000000000000000000000888888610cdf8c611595565b89604051602001610cf596959493929190612151565b6040516020818303038152906040528051906020012090506000610d188261155a565b90506000610d288287878761156d565b9050896001600160a01b0316816001600160a01b031614610d5b5760405162461bcd60e51b815260040161066590612577565b610d668a8a8a610fe2565b50505050505050505050565b7f9f2df0fed2c77648de5860a4cc508cd0818c85b8b8a1ab4ceeef8d981c8956a681565b610d9f8261068d565b610dab816106db610fde565b6106ea8383611366565b600d5490565b6001600160a01b03918216600090815260026020908152604080832093909416825291909152205490565b610dee611e4a565b6001600160a01b0383166000908152600860205260409020805463ffffffff8416908110610e2c57634e487b7160e01b600052603260045260246000fd5b60009182526020918290206040805180820190915291015463ffffffff8116825264010000000090046001600160e01b0316918101919091529392505050565b6001600160a01b038216610e925760405162461bcd60e51b815260040161066590612891565b610e9e600083836106ea565b8060036000828254610eb0919061291b565b90915550506001600160a01b03821660009081526001602052604081208054839290610edd90849061291b565b90915550506040516001600160a01b038316906000907fddf252ad1be2c89b69c2b068fc378daa952ba7f163c4a11628f55a4df523b3ef90610f20908590612148565b60405180910390a361076f600083836115c7565b610f3f8383836106ea565b6106ea610f4b84610855565b610f5484610855565b836115d2565b600061080a8284612972565b600061080a828461291b565b60006001600160e01b03821115610f9b5760405162461bcd60e51b8152600401610665906125f6565b5090565b600063ffffffff821115610f9b5760405162461bcd60e51b81526004016106659061273e565b6001600160e01b031981166301ffc9a760e01b14919050565b3390565b6001600160a01b0383166110085760405162461bcd60e51b815260040161066590612784565b6001600160a01b03821661102e5760405162461bcd60e51b8152600401610665906123f3565b6001600160a01b0380841660008181526002602090815260408083209487168084529490915290819020849055517f8c5be1e5ebec7d5bd14f71427d1e84f3dd0314c0f7b2291e5b200ac8c7c3b92590611089908590612148565b60405180910390a3505050565b6001600160a01b0383166110bc5760405162461bcd60e51b8152600401610665906126c2565b6001600160a01b0382166110e25760405162461bcd60e51b815260040161066590612292565b6110ed8383836106ea565b6001600160a01b038316600090815260016020526040902054818110156111265760405162461bcd60e51b81526004016106659061246c565b6001600160a01b0380851660009081526001602052604080822085850390559185168152908120805484929061115d90849061291b565b92505081905550826001600160a01b0316846001600160a01b03167fddf252ad1be2c89b69c2b068fc378daa952ba7f163c4a11628f55a4df523b3ef846040516111a79190612148565b60405180910390a3610a208484846115c7565b6111c48282610a73565b61076f576111dc816001600160a01b031660146116fd565b6111e78360206116fd565b6040516020016111f89291906120b4565b60408051601f198184030181529082905262461bcd60e51b8252610665916004016121f3565b6112288282610a73565b61076f576000828152602081815260408083206001600160a01b03851684529091529020805460ff1916600117905561125f610fde565b6001600160a01b0316816001600160a01b0316837f2f8788117e7eff1d82e926ec794901d17c78024a50270940304540a733656f0d60405160405180910390a45050565b60007f00000000000000000000000000000000000000000000000000000000000000004614156112f457507f00000000000000000000000000000000000000000000000000000000000000006105ce565b61135f7f00000000000000000000000000000000000000000000000000000000000000007f00000000000000000000000000000000000000000000000000000000000000007f00000000000000000000000000000000000000000000000000000000000000006118af565b90506105ce565b6113708282610a73565b1561076f576000828152602081815260408083206001600160a01b03851684529091529020805460ff191690556113a5610fde565b6001600160a01b0316816001600160a01b0316837ff6391f5c32d9c69d2a47ea670b442974b53935d1edc7fd64eb21e047a839171b60405160405180910390a45050565b8154600090815b8181101561145b57600061140482846118e9565b90508486828154811061142757634e487b7160e01b600052603260045260246000fd5b60009182526020909120015463ffffffff16111561144757809250611455565b61145281600161291b565b91505b506113f0565b81156114ad578461146d600184612972565b8154811061148b57634e487b7160e01b600052603260045260246000fd5b60009182526020909120015464010000000090046001600160e01b03166114b0565b60005b6001600160e01b031695945050505050565b61076f8282611904565b60006114d783610855565b905060006114e48461098c565b6001600160a01b0385811660008181526007602052604080822080546001600160a01b031916898616908117909155905194955093928616927f3134e8a2e6d97e929a7e54011ea5485d7d196dd5f0ba4d4ef95803e8e3fc257f9190a4610a208284836115d2565b61076f828261191c565b5490565b60006105366115676112a3565b8361195f565b600080600061157e87878787611992565b9150915061158b81611a72565b5095945050505050565b6001600160a01b03811660009081526006602052604081206115b681611556565b91506115c181611b9f565b50919050565b6106ea838383610f34565b816001600160a01b0316836001600160a01b0316141580156115f45750600081115b156106ea576001600160a01b03831615611679576001600160a01b0383166000908152600860205260408120819061162f90610f5a85611ba8565b91509150846001600160a01b03167fdec2bacdd2f05b59de34da9b523dff8be42e5e38e818c82fdb0bae774387a724838360405161166e9291906128ee565b60405180910390a250505b6001600160a01b038216156106ea576001600160a01b038216600090815260086020526040812081906116af90610f6685611ba8565b91509150836001600160a01b03167fdec2bacdd2f05b59de34da9b523dff8be42e5e38e818c82fdb0bae774387a72483836040516116ee9291906128ee565b60405180910390a25050505050565b6060600061170c836002612953565b61171790600261291b565b67ffffffffffffffff81111561173d57634e487b7160e01b600052604160045260246000fd5b6040519080825280601f01601f191660200182016040528015611767576020820181803683370190505b509050600360fc1b8160008151811061179057634e487b7160e01b600052603260045260246000fd5b60200101906001600160f81b031916908160001a905350600f60fb1b816001815181106117cd57634e487b7160e01b600052603260045260246000fd5b60200101906001600160f81b031916908160001a90535060006117f1846002612953565b6117fc90600161291b565b90505b6001811115611890576f181899199a1a9b1b9c1cb0b131b232b360811b85600f166010811061183e57634e487b7160e01b600052603260045260246000fd5b1a60f81b82828151811061186257634e487b7160e01b600052603260045260246000fd5b60200101906001600160f81b031916908160001a90535060049490941c93611889816129b5565b90506117ff565b50831561080a5760405162461bcd60e51b81526004016106659061225d565b600083838346306040516020016118ca9594939291906121a9565b6040516020818303038152906040528051906020012090509392505050565b60006118f86002848418612933565b61080a9084841661291b565b61190e8282611d59565b610a206009610f5a83611ba8565b6119246106fa565b8161192d6105ee565b611937919061291b565b11156119555760405162461bcd60e51b815260040161066590612707565b61076f8282610e6c565b60008282604051602001611974929190612099565b60405160208183030381529060405280519060200120905092915050565b6000807f7fffffffffffffffffffffffffffffff5d576e7357a4501ddfe92f46681b20a08311156119c95750600090506003611a69565b8460ff16601b141580156119e157508460ff16601c14155b156119f25750600090506004611a69565b600060018787878760405160008152602001604052604051611a1794939291906121d5565b6020604051602081039080840390855afa158015611a39573d6000803e3d6000fd5b5050604051601f1901519150506001600160a01b038116611a6257600060019250925050611a69565b9150600090505b94509492505050565b6000816004811115611a9457634e487b7160e01b600052602160045260246000fd5b1415611a9f5761088a565b6001816004811115611ac157634e487b7160e01b600052602160045260246000fd5b1415611adf5760405162461bcd60e51b815260040161066590612226565b6002816004811115611b0157634e487b7160e01b600052602160045260246000fd5b1415611b1f5760405162461bcd60e51b815260040161066590612385565b6003816004811115611b4157634e487b7160e01b600052602160045260246000fd5b1415611b5f5760405162461bcd60e51b8152600401610665906124b2565b6004816004811115611b8157634e487b7160e01b600052602160045260246000fd5b141561088a5760405162461bcd60e51b8152600401610665906124f4565b80546001019055565b825460009081908015611c015785611bc1600183612972565b81548110611bdf57634e487b7160e01b600052603260045260246000fd5b60009182526020909120015464010000000090046001600160e01b0316611c04565b60005b6001600160e01b03169250611c1d83858763ffffffff16565b9150600081118015611c6957504386611c37600184612972565b81548110611c5557634e487b7160e01b600052603260045260246000fd5b60009182526020909120015463ffffffff16145b15611cd757611c7782610f72565b86611c83600184612972565b81548110611ca157634e487b7160e01b600052603260045260246000fd5b9060005260206000200160000160046101000a8154816001600160e01b0302191690836001600160e01b03160217905550611d50565b856040518060400160405280611cec43610f9f565b63ffffffff168152602001611d0085610f72565b6001600160e01b039081169091528254600181018455600093845260209384902083519101805493909401519091166401000000000263ffffffff91821663ffffffff1990931692909217161790555b50935093915050565b6001600160a01b038216611d7f5760405162461bcd60e51b815260040161066590612681565b611d8b826000836106ea565b6001600160a01b03821660009081526001602052604090205481811015611dc45760405162461bcd60e51b815260040161066590612343565b6001600160a01b0383166000908152600160205260408120838303905560038054849290611df3908490612972565b90915550506040516000906001600160a01b038516907fddf252ad1be2c89b69c2b068fc378daa952ba7f163c4a11628f55a4df523b3ef90611e36908690612148565b60405180910390a36106ea836000846115c7565b604080518082019091526000808252602082015290565b80356001600160a01b038116811461053957600080fd5b803560ff8116811461053957600080fd5b600060208284031215611e9a578081fd5b61080a82611e61565b60008060408385031215611eb5578081fd5b611ebe83611e61565b9150611ecc60208401611e61565b90509250929050565b600080600060608486031215611ee9578081fd5b611ef284611e61565b9250611f0060208501611e61565b9150604084013590509250925092565b600080600080600080600060e0888a031215611f2a578283fd5b611f3388611e61565b9650611f4160208901611e61565b95506040880135945060608801359350611f5d60808901611e78565b925060a0880135915060c0880135905092959891949750929550565b60008060408385031215611f8b578182fd5b611f9483611e61565b946020939093013593505050565b60008060008060008060c08789031215611fba578182fd5b611fc387611e61565b95506020870135945060408701359350611fdf60608801611e78565b92506080870135915060a087013590509295509295509295565b6000806040838503121561200b578182fd5b61201483611e61565b9150602083013563ffffffff8116811461202c578182fd5b809150509250929050565b600060208284031215612048578081fd5b5035919050565b60008060408385031215612061578182fd5b82359150611ecc60208401611e61565b600060208284031215612082578081fd5b81356001600160e01b03198116811461080a578182fd5b61190160f01b81526002810192909252602282015260420190565b60007f416363657373436f6e74726f6c3a206163636f756e7420000000000000000000825283516120ec816017850160208801612989565b7001034b99036b4b9b9b4b733903937b6329607d1b601791840191820152835161211d816028840160208801612989565b01602801949350505050565b6001600160a01b0391909116815260200190565b901515815260200190565b90815260200190565b9586526001600160a01b0394851660208701529290931660408501526060840152608083019190915260a082015260c00190565b9384526001600160a01b039290921660208401526040830152606082015260800190565b9485526020850193909352604084019190915260608301526001600160a01b0316608082015260a00190565b93845260ff9290921660208401526040830152606082015260800190565b6000602082528251806020840152612212816040850160208701612989565b601f01601f19169190910160400192915050565b60208082526018908201527f45434453413a20696e76616c6964207369676e61747572650000000000000000604082015260600190565b6020808252818101527f537472696e67733a20686578206c656e67746820696e73756666696369656e74604082015260600190565b60208082526023908201527f45524332303a207472616e7366657220746f20746865207a65726f206164647260408201526265737360e81b606082015260800190565b6020808252601f908201527f4552433230566f7465733a20626c6f636b206e6f7420796574206d696e656400604082015260600190565b6020808252601d908201527f4552433230566f7465733a207369676e61747572652065787069726564000000604082015260600190565b60208082526022908201527f45524332303a206275726e20616d6f756e7420657863656564732062616c616e604082015261636560f01b606082015260800190565b6020808252601f908201527f45434453413a20696e76616c6964207369676e6174757265206c656e67746800604082015260600190565b60208082526019908201527f4552433230566f7465733a20696e76616c6964206e6f6e636500000000000000604082015260600190565b60208082526022908201527f45524332303a20617070726f766520746f20746865207a65726f206164647265604082015261737360f01b606082015260800190565b6020808252601d908201527f45524332305065726d69743a206578706972656420646561646c696e65000000604082015260600190565b60208082526026908201527f45524332303a207472616e7366657220616d6f756e7420657863656564732062604082015265616c616e636560d01b606082015260800190565b60208082526022908201527f45434453413a20696e76616c6964207369676e6174757265202773272076616c604082015261756560f01b606082015260800190565b60208082526022908201527f45434453413a20696e76616c6964207369676e6174757265202776272076616c604082015261756560f01b606082015260800190565b60208082526021908201527f546f6b656e3a20416c6c20546f6b656e7320686173206265656e206d696e74656040820152601960fa1b606082015260800190565b6020808252601e908201527f45524332305065726d69743a20696e76616c6964207369676e61747572650000604082015260600190565b60208082526028908201527f45524332303a207472616e7366657220616d6f756e74206578636565647320616040820152676c6c6f77616e636560c01b606082015260800190565b60208082526027908201527f53616665436173743a2076616c756520646f65736e27742066697420696e20326040820152663234206269747360c81b606082015260800190565b60208082526024908201527f45524332303a206275726e20616d6f756e74206578636565647320616c6c6f77604082015263616e636560e01b606082015260800190565b60208082526021908201527f45524332303a206275726e2066726f6d20746865207a65726f206164647265736040820152607360f81b606082015260800190565b60208082526025908201527f45524332303a207472616e736665722066726f6d20746865207a65726f206164604082015264647265737360d81b606082015260800190565b60208082526019908201527f45524332304361707065643a2063617020657863656564656400000000000000604082015260600190565b60208082526026908201527f53616665436173743a2076616c756520646f65736e27742066697420696e203360408201526532206269747360d01b606082015260800190565b60208082526024908201527f45524332303a20617070726f76652066726f6d20746865207a65726f206164646040820152637265737360e01b606082015260800190565b6020808252818101527f546f6b656e3a204d696e74696e67206e6f74207065726d69746564207965742e604082015260600190565b60208082526025908201527f45524332303a2064656372656173656420616c6c6f77616e63652062656c6f77604082015264207a65726f60d81b606082015260800190565b6020808252602f908201527f416363657373436f6e74726f6c3a2063616e206f6e6c792072656e6f756e636560408201526e103937b632b9903337b91039b2b63360891b606082015260800190565b6020808252601f908201527f45524332303a206d696e7420746f20746865207a65726f206164647265737300604082015260600190565b815163ffffffff1681526020918201516001600160e01b03169181019190915260400190565b918252602082015260400190565b63ffffffff91909116815260200190565b60ff91909116815260200190565b6000821982111561292e5761292e612a01565b500190565b60008261294e57634e487b7160e01b81526012600452602481fd5b500490565b600081600019048311821515161561296d5761296d612a01565b500290565b60008282101561298457612984612a01565b500390565b60005b838110156129a457818101518382015260200161298c565b83811115610a205750506000910152565b6000816129c4576129c4612a01565b506000190190565b6002810460018216806129e057607f821691505b602082108114156115c157634e487b7160e01b600052602260045260246000fd5b634e487b7160e01b600052601160045260246000fdfea2646970667358221220a8c55ad3af07337c63d760880113227a5a57ac9b13413f0cfb365c89843ca2b864736f6c63430008000033dec2bacdd2f05b59de34da9b523dff8be42e5e38e818c82fdb0bae774387a724",
  "immutableReferences": {
    "1011": [
      {
        "length": 32,
        "start": 1788
      }
    ],
    "1767": [
      {
        "length": 32,
        "start": 3252
      }
    ],
    "2616": [
      {
        "length": 32,
        "start": 4816
      }
    ],
    "2618": [
      {
        "length": 32,
        "start": 4775
      }
    ],
    "2620": [
      {
        "length": 32,
        "start": 4890
      }
    ],
    "2622": [
      {
        "length": 32,
        "start": 4923
      }
    ],
    "2624": [
      {
        "length": 32,
        "start": 4857
      }
    ]
  },
  "source": "// SPDX-License-Identifier: MIT\npragma solidity >=0.8.0 <0.9.0;\n\nimport \"@openzeppelin/contracts/token/ERC20/ERC20.sol\";\nimport '@openzeppelin/contracts/token/ERC20/extensions/ERC20Capped.sol';\nimport '@openzeppelin/contracts/access/AccessControl.sol';\nimport \"@openzeppelin/contracts/token/ERC20/extensions/draft-ERC20Permit.sol\";\nimport \"@openzeppelin/contracts/token/ERC20/extensions/ERC20Votes.sol\";\n\n  contract RewardToken is AccessControl, ERC20Capped,ERC20Permit, ERC20Votes {\n\n    bytes32 public constant MINTER_ROLE = keccak256(\"MINTER_ROLE\");\n    bytes32 public constant BURNER_ROLE = keccak256(\"BURNER_ROLE\");\n\n  //Amount that will be minted on next mint call\n  uint256 private _nextAllowedMint;\n  // Timestamp of when minting may be allowed;\n  uint256 private _mintingAllowedAfter;\n  // Minimum time required between each mints\n  uint256 private _minimumTimeBetweenMints;\n  //  Amount of mints left \n  uint256 private _mintCount;\n  //  Total amount of tokens left to be minted\n  uint256 private _mintAmountleft;\n\n\n    /**\n     * @notice Construct a new Treasure token\n     * @notice implements ERC20 standards and ERC20cappped standards\n     * @param name_ Name of the token created from ERC20 standards\n     * @param symbol_ Symbol of the token created from ERC20 standards\n     * @param cap_ The total max supply of the token\n     * @param initialSupply_ The total amount that is accessible on token deployment\n     * @param mintingAllowedAfter_ Timestamp of when minting may be allowed;\n     **/\n\n  constructor(\n      string memory name_, \n      string memory symbol_, \n      uint256 cap_, \n      uint256 initialSupply_, \n      uint256 mintingAllowedAfter_\n    ) \n    ERC20(name_,symbol_) \n    ERC20Capped(cap_) \n    ERC20Permit(name_)\n    {\n      require(mintingAllowedAfter_ >= block.timestamp, \"Token::constructor: minting can only start after token is deployed\");\n\n      // Setting up roles\n      _setupRole(DEFAULT_ADMIN_ROLE, _msgSender());\n      _setupRole(MINTER_ROLE, _msgSender());\n      _setupRole(BURNER_ROLE, _msgSender());\n\n        ERC20._mint(_msgSender(), initialSupply_);\n        _mintingAllowedAfter = mintingAllowedAfter_;\n        _minimumTimeBetweenMints= 1 minutes * 5;  \n        _nextAllowedMint = 200 * (10**uint256(18));\n        _mintCount = 3;\n        _mintAmountleft = 600 * (10**uint256(18));\n    }\n\n    /**\n     * @return Returns the count of mints that is remaining \n     */\n   function remainingMints() \n      public \n      view \n      returns(uint256) \n    {\n          return _mintCount;\n    }\n\n    /**\n     * @return Returns the Total amounts Tokens that is yet to be minted  \n     */\n    function mintAmountleft() \n      public \n      view \n      returns(uint256) \n    {\n          return _mintAmountleft;\n    }\n\n    /**\n     * @return Returns the Total amounts Tokens that is allowed to be minted  next\n     */\n    function nextAllowedMint() \n        public \n        view \n        returns(uint256) \n    {\n          return _nextAllowedMint;\n    }\n\n    /**\n     * @return Returns the Timestamp of when minting may be allowed  \n     */\n    function mintingAllowedAfter() \n        public \n        view \n        returns(uint256) \n      {\n          return _mintingAllowedAfter;\n      }\n\n    /**\n     * @return Returns the Timestamp of when minting may be allowed  \n     */\n    function minimumTimeBetweenMints()\n        public \n        view \n        returns(uint256) \n      {\n            return _minimumTimeBetweenMints;\n      }\n\n    /**\n     * @notice Mint new tokens, can only be accessed by owner\n     * @param account The address of the destination account\n     */\n    function mint(\n        address account\n        ) \n      public \n      virtual \n      onlyRole(MINTER_ROLE)\n      {\n          require(_mintCount > 0, 'Token: All Tokens has been minted');\n          require(block.timestamp > _mintingAllowedAfter,  \"Token: Minting not permited yet.\");\n\n         // Mint tokens\n          uint256 amount = _nextAllowedMint;\n          _mint(account,amount);\n\n        //  Record the mint \n         _mintingAllowedAfter = block.timestamp + _minimumTimeBetweenMints;\n         _mintCount -= 1;\n         _mintAmountleft -= amount;\n         if (mintAmountleft() == 0 ){\n            _nextAllowedMint = 0;\n            _mintingAllowedAfter= 0;\n          }\n    }\n\n    /**\n     * @notice Destroys `amount` tokens from the caller.\n     * @param amount The amount of tokens to be  destroyed\n     */\n    function burn(uint256 amount) public virtual onlyRole(BURNER_ROLE) {\n        _burn(_msgSender(), amount);\n    }\n\n    /**\n     * @notice Destroys `amount` tokens from `account`, deducting from the caller's. \n     * @notice Caller must have allowance from owners account \n     * @param account The address of tokens will be destroyed from\n     * @param amount Tamount of tokens to be  destroyed from that account\n     */\n    function burnFrom(address account, uint256 amount) public virtual  onlyRole(BURNER_ROLE) {\n        uint256 currentAllowance = allowance(account, _msgSender());\n        require(currentAllowance >= amount, \"ERC20: burn amount exceeds allowance\");\n        unchecked {\n            _approve(account, _msgSender(), currentAllowance - amount);\n        }\n        _burn(account, amount);\n    }\n\n    /**\n     * @notice Mint new tokens\n     * @param account The address of the destination account\n     * @param amount The address of the destination account\n     */\n    function _mint(\n        address account, \n        uint256 amount) \n      internal \n      virtual \n      override(ERC20,ERC20Capped,ERC20Votes)\n    {\n        ERC20Capped._mint(account, amount);\n    }\n\n    function _burn(address account, uint256 amount)\n        internal\n        override(ERC20, ERC20Votes)\n    {\n        super._burn(account, amount);\n    }\n   \n    function _afterTokenTransfer(address from, address to, uint256 amount)\n        internal\n        override(ERC20, ERC20Votes)\n    {\n        super._afterTokenTransfer(from, to, amount);\n    }\n\n}\n\n",
  "sourcePath": "/Users/xx_lanre/Desktop/Defi_Farm/contracts/RewardToken.sol",
  "compiler": {
    "name": "solc",
    "version": "0.8.0+commit.c7dfd78e.Emscripten.clang"
  },
  "schemaVersion": "3.4.3",
  "updatedAt": "2021-09-26T08:22:58.412Z",
  "networkType": "ethereum",
  "devdoc": {
    "kind": "dev",
    "methods": {
      "DOMAIN_SEPARATOR()": {
        "details": "See {IERC20Permit-DOMAIN_SEPARATOR}."
      },
      "allowance(address,address)": {
        "details": "See {IERC20-allowance}."
      },
      "approve(address,uint256)": {
        "details": "See {IERC20-approve}. Requirements: - `spender` cannot be the zero address."
      },
      "balanceOf(address)": {
        "details": "See {IERC20-balanceOf}."
      },
      "burn(uint256)": {
        "params": {
          "amount": "The amount of tokens to be  destroyed"
        }
      },
      "burnFrom(address,uint256)": {
        "params": {
          "account": "The address of tokens will be destroyed from",
          "amount": "Tamount of tokens to be  destroyed from that account"
        }
      },
      "cap()": {
        "details": "Returns the cap on the token's total supply."
      },
      "checkpoints(address,uint32)": {
        "details": "Get the `pos`-th checkpoint for `account`."
      },
      "constructor": {
        "params": {
          "cap_": "The total max supply of the token",
          "initialSupply_": "The total amount that is accessible on token deployment",
          "mintingAllowedAfter_": "Timestamp of when minting may be allowed;*",
          "name_": "Name of the token created from ERC20 standards",
          "symbol_": "Symbol of the token created from ERC20 standards"
        }
      },
      "decimals()": {
        "details": "Returns the number of decimals used to get its user representation. For example, if `decimals` equals `2`, a balance of `505` tokens should be displayed to a user as `5.05` (`505 / 10 ** 2`). Tokens usually opt for a value of 18, imitating the relationship between Ether and Wei. This is the value {ERC20} uses, unless this function is overridden; NOTE: This information is only used for _display_ purposes: it in no way affects any of the arithmetic of the contract, including {IERC20-balanceOf} and {IERC20-transfer}."
      },
      "decreaseAllowance(address,uint256)": {
        "details": "Atomically decreases the allowance granted to `spender` by the caller. This is an alternative to {approve} that can be used as a mitigation for problems described in {IERC20-approve}. Emits an {Approval} event indicating the updated allowance. Requirements: - `spender` cannot be the zero address. - `spender` must have allowance for the caller of at least `subtractedValue`."
      },
      "delegate(address)": {
        "details": "Delegate votes from the sender to `delegatee`."
      },
      "delegateBySig(address,uint256,uint256,uint8,bytes32,bytes32)": {
        "details": "Delegates votes from signer to `delegatee`"
      },
      "delegates(address)": {
        "details": "Get the address `account` is currently delegating to."
      },
      "getPastTotalSupply(uint256)": {
        "details": "Retrieve the `totalSupply` at the end of `blockNumber`. Note, this value is the sum of all balances. It is but NOT the sum of all the delegated votes! Requirements: - `blockNumber` must have been already mined"
      },
      "getPastVotes(address,uint256)": {
        "details": "Retrieve the number of votes for `account` at the end of `blockNumber`. Requirements: - `blockNumber` must have been already mined"
      },
      "getRoleAdmin(bytes32)": {
        "details": "Returns the admin role that controls `role`. See {grantRole} and {revokeRole}. To change a role's admin, use {_setRoleAdmin}."
      },
      "getVotes(address)": {
        "details": "Gets the current votes balance for `account`"
      },
      "grantRole(bytes32,address)": {
        "details": "Grants `role` to `account`. If `account` had not been already granted `role`, emits a {RoleGranted} event. Requirements: - the caller must have ``role``'s admin role."
      },
      "hasRole(bytes32,address)": {
        "details": "Returns `true` if `account` has been granted `role`."
      },
      "increaseAllowance(address,uint256)": {
        "details": "Atomically increases the allowance granted to `spender` by the caller. This is an alternative to {approve} that can be used as a mitigation for problems described in {IERC20-approve}. Emits an {Approval} event indicating the updated allowance. Requirements: - `spender` cannot be the zero address."
      },
      "minimumTimeBetweenMints()": {
        "returns": {
          "_0": "Returns the Timestamp of when minting may be allowed  "
        }
      },
      "mint(address)": {
        "params": {
          "account": "The address of the destination account"
        }
      },
      "mintAmountleft()": {
        "returns": {
          "_0": "Returns the Total amounts Tokens that is yet to be minted  "
        }
      },
      "mintingAllowedAfter()": {
        "returns": {
          "_0": "Returns the Timestamp of when minting may be allowed  "
        }
      },
      "name()": {
        "details": "Returns the name of the token."
      },
      "nextAllowedMint()": {
        "returns": {
          "_0": "Returns the Total amounts Tokens that is allowed to be minted  next"
        }
      },
      "nonces(address)": {
        "details": "See {IERC20Permit-nonces}."
      },
      "numCheckpoints(address)": {
        "details": "Get number of checkpoints for `account`."
      },
      "permit(address,address,uint256,uint256,uint8,bytes32,bytes32)": {
        "details": "See {IERC20Permit-permit}."
      },
      "remainingMints()": {
        "returns": {
          "_0": "Returns the count of mints that is remaining "
        }
      },
      "renounceRole(bytes32,address)": {
        "details": "Revokes `role` from the calling account. Roles are often managed via {grantRole} and {revokeRole}: this function's purpose is to provide a mechanism for accounts to lose their privileges if they are compromised (such as when a trusted device is misplaced). If the calling account had been granted `role`, emits a {RoleRevoked} event. Requirements: - the caller must be `account`."
      },
      "revokeRole(bytes32,address)": {
        "details": "Revokes `role` from `account`. If `account` had been granted `role`, emits a {RoleRevoked} event. Requirements: - the caller must have ``role``'s admin role."
      },
      "supportsInterface(bytes4)": {
        "details": "See {IERC165-supportsInterface}."
      },
      "symbol()": {
        "details": "Returns the symbol of the token, usually a shorter version of the name."
      },
      "totalSupply()": {
        "details": "See {IERC20-totalSupply}."
      },
      "transfer(address,uint256)": {
        "details": "See {IERC20-transfer}. Requirements: - `recipient` cannot be the zero address. - the caller must have a balance of at least `amount`."
      },
      "transferFrom(address,address,uint256)": {
        "details": "See {IERC20-transferFrom}. Emits an {Approval} event indicating the updated allowance. This is not required by the EIP. See the note at the beginning of {ERC20}. Requirements: - `sender` and `recipient` cannot be the zero address. - `sender` must have a balance of at least `amount`. - the caller must have allowance for ``sender``'s tokens of at least `amount`."
      }
    },
    "version": 1
  },
  "userdoc": {
    "kind": "user",
    "methods": {
      "burn(uint256)": {
        "notice": "Destroys `amount` tokens from the caller."
      },
      "burnFrom(address,uint256)": {
        "notice": "Destroys `amount` tokens from `account`, deducting from the caller's. Caller must have allowance from owners account "
      },
      "constructor": {
        "notice": "Construct a new Treasure tokenimplements ERC20 standards and ERC20cappped standards"
      },
      "mint(address)": {
        "notice": "Mint new tokens, can only be accessed by owner"
      }
    },
    "version": 1
  }
}