{
  "contractName": "RewardsFarm",
  "abi": [
    {
      "inputs": [
        {
          "internalType": "contract RewardToken",
          "name": "_rewardToken",
          "type": "address"
        },
        {
          "internalType": "contract StakeToken",
          "name": "_stakeToken",
          "type": "address"
        }
      ],
      "stateMutability": "nonpayable",
      "type": "constructor"
    },
    {
      "inputs": [
        {
          "internalType": "address",
          "name": "",
          "type": "address"
        }
      ],
      "name": "hasStaked",
      "outputs": [
        {
          "internalType": "bool",
          "name": "",
          "type": "bool"
        }
      ],
      "stateMutability": "view",
      "type": "function",
      "constant": true
    },
    {
      "inputs": [
        {
          "internalType": "address",
          "name": "",
          "type": "address"
        }
      ],
      "name": "isStaking",
      "outputs": [
        {
          "internalType": "bool",
          "name": "",
          "type": "bool"
        }
      ],
      "stateMutability": "view",
      "type": "function",
      "constant": true
    },
    {
      "inputs": [],
      "name": "name",
      "outputs": [
        {
          "internalType": "string",
          "name": "",
          "type": "string"
        }
      ],
      "stateMutability": "view",
      "type": "function",
      "constant": true
    },
    {
      "inputs": [],
      "name": "owner",
      "outputs": [
        {
          "internalType": "address",
          "name": "",
          "type": "address"
        }
      ],
      "stateMutability": "view",
      "type": "function",
      "constant": true
    },
    {
      "inputs": [],
      "name": "rewardsToken",
      "outputs": [
        {
          "internalType": "contract RewardToken",
          "name": "",
          "type": "address"
        }
      ],
      "stateMutability": "view",
      "type": "function",
      "constant": true
    },
    {
      "inputs": [],
      "name": "stakeToken",
      "outputs": [
        {
          "internalType": "contract StakeToken",
          "name": "",
          "type": "address"
        }
      ],
      "stateMutability": "view",
      "type": "function",
      "constant": true
    },
    {
      "inputs": [
        {
          "internalType": "uint256",
          "name": "",
          "type": "uint256"
        }
      ],
      "name": "stakers",
      "outputs": [
        {
          "internalType": "address",
          "name": "",
          "type": "address"
        }
      ],
      "stateMutability": "view",
      "type": "function",
      "constant": true
    },
    {
      "inputs": [
        {
          "internalType": "address",
          "name": "",
          "type": "address"
        }
      ],
      "name": "stakingBalance",
      "outputs": [
        {
          "internalType": "uint256",
          "name": "",
          "type": "uint256"
        }
      ],
      "stateMutability": "view",
      "type": "function",
      "constant": true
    },
    {
      "inputs": [
        {
          "internalType": "uint256",
          "name": "_amount",
          "type": "uint256"
        }
      ],
      "name": "stakeTokens",
      "outputs": [],
      "stateMutability": "nonpayable",
      "type": "function"
    },
    {
      "inputs": [],
      "name": "unstakeTokens",
      "outputs": [],
      "stateMutability": "nonpayable",
      "type": "function"
    },
    {
      "inputs": [],
      "name": "issueTokens",
      "outputs": [],
      "stateMutability": "nonpayable",
      "type": "function"
    }
  ],
  "bytecode": "0x60c0604052600f60808190526e4461707020546f6b656e204661726d60881b60a0908152610030916000919061009f565b5034801561003d57600080fd5b5060405162000ae738038062000ae783398101604081905261005e91610138565b600280546001600160a01b039384166001600160a01b03199182161790915560038054929093169181169190911790915560018054909116331790556101c4565b8280546100ab90610171565b90600052602060002090601f0160209004810192826100cd5760008555610113565b82601f106100e657805160ff1916838001178555610113565b82800160010185558215610113579182015b828111156101135782518255916020019190600101906100f8565b5061011f929150610123565b5090565b5b8082111561011f5760008155600101610124565b6000806040838503121561014a578182fd5b8251610155816101ac565b6020840151909250610166816101ac565b809150509250929050565b60028104600182168061018557607f821691505b602082108114156101a657634e487b7160e01b600052602260045260246000fd5b50919050565b6001600160a01b03811681146101c157600080fd5b50565b61091380620001d46000396000f3fe608060405234801561001057600080fd5b50600436106100a95760003560e01c80637547c7a3116100715780637547c7a31461012b5780638da5cb5b1461013e578063a5ce413b14610146578063c93c8f341461014e578063d1af0c7d14610161578063fd5e6dd114610169576100a9565b806306fdde03146100ae57806345bc78ab146100cc57806351ed6a30146100ec57806360ab5852146101015780636f49712b1461010b575b600080fd5b6100b661017c565b6040516100c391906106d5565b60405180910390f35b6100df6100da366004610613565b61020a565b6040516100c39190610811565b6100f461021c565b6040516100c39190610679565b61010961022b565b005b61011e610119366004610613565b61036e565b6040516100c391906106ca565b610109610139366004610661565b610383565b6100f46104dd565b6101096104ec565b61011e61015c366004610613565b6105c5565b6100f46105da565b6100f4610177366004610661565b6105e9565b6000805461018990610871565b80601f01602080910402602001604051908101604052809291908181526020018280546101b590610871565b80156102025780601f106101d757610100808354040283529160200191610202565b820191906000526020600020905b8154815290600101906020018083116101e557829003601f168201915b505050505081565b60056020526000908152604090205481565b6003546001600160a01b031681565b6001546001600160a01b0316331461025e5760405162461bcd60e51b815260040161025590610728565b60405180910390fd5b60005b60045481101561036b5760006004828154811061028e57634e487b7160e01b600052603260045260246000fd5b60009182526020808320909101546001600160a01b031680835260059091526040909120549091508015610356576002546001600160a01b031663a9059cbb8360646102db85604b610852565b6102e59190610832565b6040518363ffffffff1660e01b81526004016103029291906106b1565b602060405180830381600087803b15801561031c57600080fd5b505af1158015610330573d6000803e3d6000fd5b505050506040513d601f19601f820116820180604052508101906103549190610641565b505b50508080610363906108ac565b915050610261565b50565b60076020526000908152604090205460ff1681565b600081116103a35760405162461bcd60e51b81526004016102559061077d565b6003546040516323b872dd60e01b81526001600160a01b03909116906323b872dd906103d79033903090869060040161068d565b602060405180830381600087803b1580156103f157600080fd5b505af1158015610405573d6000803e3d6000fd5b505050506040513d601f19601f820116820180604052508101906104299190610641565b50336000908152600560205260408120805483929061044990849061081a565b90915550503360009081526006602052604090205460ff166104a857600480546001810182556000919091527f8a35acfbc15ff81a39ae7d344fd709f28e8600b4aa8c65c6b64bfe7fe36bd19b0180546001600160a01b031916331790555b503360009081526007602090815260408083208054600160ff1991821681179092556006909352922080549091169091179055565b6001546001600160a01b031681565b33600090815260056020526040902054806105195760405162461bcd60e51b8152600401610255906107c1565b60035460405163a9059cbb60e01b81526001600160a01b039091169063a9059cbb9061054b90339085906004016106b1565b602060405180830381600087803b15801561056557600080fd5b505af1158015610579573d6000803e3d6000fd5b505050506040513d601f19601f8201168201806040525081019061059d9190610641565b505033600090815260056020908152604080832083905560079091529020805460ff19169055565b60066020526000908152604090205460ff1681565b6002546001600160a01b031681565b600481815481106105f957600080fd5b6000918252602090912001546001600160a01b0316905081565b600060208284031215610624578081fd5b81356001600160a01b038116811461063a578182fd5b9392505050565b600060208284031215610652578081fd5b8151801515811461063a578182fd5b600060208284031215610672578081fd5b5035919050565b6001600160a01b0391909116815260200190565b6001600160a01b039384168152919092166020820152604081019190915260600190565b6001600160a01b03929092168252602082015260400190565b901515815260200190565b6000602080835283518082850152825b81811015610701578581018301518582016040015282016106e5565b818111156107125783604083870101525b50601f01601f1916929092016040019392505050565b60208082526035908201527f52657761726473204661726d3a3a204f6e6c7920617574686f72697a6564206160408201527432323932b9b99031b0b71031b0b636103a3434b99760591b606082015260800190565b60208082526024908201527f52657761726473204661726d3a3a2043616e6e6f74207374616b65203020746f6040820152636b656e7360e01b606082015260800190565b60208082526030908201527f52657761726473204661726d3a3a205468657265206973206e6f207374616b6960408201526f3733903130b630b731b2903632b33a1760811b606082015260800190565b90815260200190565b6000821982111561082d5761082d6108c7565b500190565b60008261084d57634e487b7160e01b81526012600452602481fd5b500490565b600081600019048311821515161561086c5761086c6108c7565b500290565b60028104600182168061088557607f821691505b602082108114156108a657634e487b7160e01b600052602260045260246000fd5b50919050565b60006000198214156108c0576108c06108c7565b5060010190565b634e487b7160e01b600052601160045260246000fdfea26469706673582212204e06a245d32ba3a6e314abed0bf805e978d401594e89d590bc1825c18cfbf24e64736f6c63430008000033",
  "immutableReferences": {},
  "source": "// SPDX-License-Identifier: MIT\npragma solidity >=0.8.0 < 0.9.0;\n\nimport './RewardToken.sol';\nimport './StakingToken.sol';\n\ncontract RewardsFarm{\n    string public name = 'Dapp Token Farm';\n    address public owner;\n    RewardToken public rewardsToken;\n    StakeToken public stakeToken;\n    address[] public stakers;\n    mapping(address => uint) public stakingBalance;\n    mapping(address => bool) public hasStaked;\n    mapping(address => bool) public isStaking;\n    \n\n\n    constructor (RewardToken _rewardToken, StakeToken _stakeToken)   {\n        rewardsToken = _rewardToken;\n        stakeToken = _stakeToken;\n        owner = msg.sender;\n    }\n\n    // 1. Stake Tokens \n    function stakeTokens(uint _amount) public {\n        require(_amount > 0, 'Rewards Farm:: Cannot stake 0 tokens');\n        // Transfer Staking tokens to this contract\n        stakeToken.transferFrom(msg.sender, address(this), _amount);\n        // update staking balance\n        stakingBalance[msg.sender] += _amount; \n        // Add user to stakers array *only* if they havent staked before\n        if(!hasStaked[msg.sender]){\n        stakers.push(msg.sender);\n        }   \n        isStaking[msg.sender] = true;\n        hasStaked[msg.sender] = true;\n    }\n\n    // 2. Unstaking tokens \n    function unstakeTokens() public {\n        uint balance = stakingBalance[msg.sender];\n        require( balance > 0, 'Rewards Farm:: There is no staking balance left.');\n        // Transfer staketokens tokens\n        stakeToken.transfer(msg.sender, balance);\n\n        // Reset staking balance\n        stakingBalance[msg.sender] = 0;\n\n        // update staking status \n        isStaking[msg.sender] = false;\n        \n\n    }\n\n    // 3. Issuing tokens\n    function issueTokens() public {\n        require(msg.sender == owner, 'Rewards Farm:: Only authorized address can call this.');\n        for (uint i = 0; i < stakers.length; i++) {\n           address recipient = stakers[i];\n           uint balance = stakingBalance[recipient];\n        //    reward 75% of their staked amount\n           if (balance > 0) rewardsToken.transfer(recipient, balance * 75/100  );\n        }\n\n    }\n}",
  "sourcePath": "/Users/xx_lanre/Desktop/Defi_Farm/contracts/RewardsFarm.sol",
  "compiler": {
    "name": "solc",
    "version": "0.8.0+commit.c7dfd78e.Emscripten.clang"
  },
  "schemaVersion": "3.4.3",
  "updatedAt": "2021-09-26T08:22:58.427Z",
  "networkType": "ethereum",
  "devdoc": {
    "kind": "dev",
    "methods": {},
    "version": 1
  },
  "userdoc": {
    "kind": "user",
    "methods": {},
    "version": 1
  }
}